:100000000C943A000C9422010C9422010C94A70049
:100010000C94E6000C9422010C9422010C94220111
:100020000C9422010C9422010C9422010C942201C4
:100030000C9422010C9422010C9422010C942201B4
:100040000C9422010C9422010C9422010C942201A4
:100050000C9422010C9422010C9422010C94220194
:100060000C9422010C9422010100010200025201B1
:100070000201038011241FBECFEFD8E0DEBFCDBF49
:10008000E8E6F0E040E017C0B591A59135912591E3
:10009000059107FD0CC095918591EF01F92FE82F8F
:1000A00005900D92A217B307D9F7FE0104C01D9267
:1000B000A217B307E1F7E437F40731F70E946400B1
:0800C0000C941001F894FFCF2D
:1000C80084B1807E84B985B18F6185B987B18E7F0F
:1000D80087B988B1816088B9E8E6F0E080818360FB
:1000E8008083EBE6F0E080818F618083ECE6F0E0CE
:1000F80080818160808380E190E00E940201789491
:100108002FEF83EC99E0215080409040E1F700C048
:100118000000809102018823E1F3809102010E948E
:100128001B018DE00E941B018AE00E941B012FEF3A
:1001380080E792E0215080409040E1F700C0000045
:0601480010920201E6CF57
:10014E001F920F920FB60F9211242F938F939F939E
:10015E0093B1292F2F7180910101822780FF06C054
:10016E0090FD04C081E4809302011FC081FF06C090
:10017E0091FD04C082E48093020117C082FF06C085
:10018E0092FD04C085E5809302010FC083FF06C077
:10019E0093FD04C084E48093020107C084FF05C070
:1001AE0094FD03C082E580930201209301019F918B
:0E01BE008F912F910F900FBE0F901F901895EC
:1001CC001F920F920FB60F9211248F939F9386B1AB
:1001DC00817090910001982790FF05C0811103C098
:1001EC009CE490930201809300019F918F910F905A
:0801FC000FBE0F901F90189533
:1002040022E02093C0009093C5008093C40088E04E
:0C0214008093C10086E08093C200089532
:10022000EC010E9427010E942601CE010E942801B4
:06023000CE010E94240132
:0E0236009091C00095FFFCCF8093C600089504
:040244000C94000016
:040248000E946200AE
:02024C00089513
:02024E00089511
:0202500008950F
:0102520001AA
:010253001F8B
:00000001FF
